{
	"contracts/SavingsContract.sol": {
		"SavingsContract": {
			"abi": [
				{
					"inputs": [],
					"stateMutability": "nonpayable",
					"type": "constructor"
				},
				{
					"inputs": [
						{
							"internalType": "address",
							"name": "",
							"type": "address"
						}
					],
					"name": "balances",
					"outputs": [
						{
							"internalType": "uint256",
							"name": "",
							"type": "uint256"
						}
					],
					"stateMutability": "view",
					"type": "function"
				},
				{
					"inputs": [],
					"name": "deposit",
					"outputs": [],
					"stateMutability": "payable",
					"type": "function"
				},
				{
					"inputs": [],
					"name": "getBalance",
					"outputs": [
						{
							"internalType": "uint256",
							"name": "",
							"type": "uint256"
						}
					],
					"stateMutability": "view",
					"type": "function"
				},
				{
					"inputs": [],
					"name": "minimumDeposit",
					"outputs": [
						{
							"internalType": "uint256",
							"name": "",
							"type": "uint256"
						}
					],
					"stateMutability": "view",
					"type": "function"
				},
				{
					"inputs": [],
					"name": "owner",
					"outputs": [
						{
							"internalType": "address",
							"name": "",
							"type": "address"
						}
					],
					"stateMutability": "view",
					"type": "function"
				},
				{
					"inputs": [
						{
							"internalType": "uint256",
							"name": "_minimumDeposit",
							"type": "uint256"
						}
					],
					"name": "setMinimumDeposit",
					"outputs": [],
					"stateMutability": "nonpayable",
					"type": "function"
				},
				{
					"inputs": [
						{
							"internalType": "uint256",
							"name": "_amount",
							"type": "uint256"
						}
					],
					"name": "withdraw",
					"outputs": [],
					"stateMutability": "nonpayable",
					"type": "function"
				}
			],
			"devdoc": {
				"kind": "dev",
				"methods": {},
				"version": 1
			},
			"evm": {
				"assembly": "    /* \"contracts/SavingsContract.sol\":57:1018  contract SavingsContract {... */\n  mstore(0x40, 0x80)\n    /* \"contracts/SavingsContract.sol\":193:242  constructor() {... */\n  callvalue\n  dup1\n  iszero\n  tag_1\n  jumpi\n  0x00\n  dup1\n  revert\ntag_1:\n  pop\n    /* \"contracts/SavingsContract.sol\":225:235  msg.sender */\n  caller\n    /* \"contracts/SavingsContract.sol\":217:222  owner */\n  0x00\n  dup1\n    /* \"contracts/SavingsContract.sol\":217:235  owner = msg.sender */\n  0x0100\n  exp\n  dup2\n  sload\n  dup2\n  0xffffffffffffffffffffffffffffffffffffffff\n  mul\n  not\n  and\n  swap1\n  dup4\n  0xffffffffffffffffffffffffffffffffffffffff\n  and\n  mul\n  or\n  swap1\n  sstore\n  pop\n    /* \"contracts/SavingsContract.sol\":57:1018  contract SavingsContract {... */\n  dataSize(sub_0)\n  dup1\n  dataOffset(sub_0)\n  0x00\n  codecopy\n  0x00\n  return\nstop\n\nsub_0: assembly {\n        /* \"contracts/SavingsContract.sol\":57:1018  contract SavingsContract {... */\n      mstore(0x40, 0x80)\n      jumpi(tag_1, lt(calldatasize, 0x04))\n      shr(0xe0, calldataload(0x00))\n      dup1\n      0x636bfbab\n      gt\n      tag_9\n      jumpi\n      dup1\n      0x636bfbab\n      eq\n      tag_5\n      jumpi\n      dup1\n      0x8da5cb5b\n      eq\n      tag_6\n      jumpi\n      dup1\n      0xd0e30db0\n      eq\n      tag_7\n      jumpi\n      dup1\n      0xe78ec42e\n      eq\n      tag_8\n      jumpi\n      jump(tag_1)\n    tag_9:\n      dup1\n      0x12065fe0\n      eq\n      tag_2\n      jumpi\n      dup1\n      0x27e235e3\n      eq\n      tag_3\n      jumpi\n      dup1\n      0x2e1a7d4d\n      eq\n      tag_4\n      jumpi\n    tag_1:\n      0x00\n      dup1\n      revert\n        /* \"contracts/SavingsContract.sol\":923:1016  function getBalance() public view returns (uint) {... */\n    tag_2:\n      callvalue\n      dup1\n      iszero\n      tag_10\n      jumpi\n      0x00\n      dup1\n      revert\n    tag_10:\n      pop\n      tag_11\n      tag_12\n      jump\t// in\n    tag_11:\n      mload(0x40)\n      tag_13\n      swap2\n      swap1\n      tag_14\n      jump\t// in\n    tag_13:\n      mload(0x40)\n      dup1\n      swap2\n      sub\n      swap1\n      return\n        /* \"contracts/SavingsContract.sol\":146:186  mapping(address => uint) public balances */\n    tag_3:\n      callvalue\n      dup1\n      iszero\n      tag_15\n      jumpi\n      0x00\n      dup1\n      revert\n    tag_15:\n      pop\n      tag_16\n      0x04\n      dup1\n      calldatasize\n      sub\n      dup2\n      add\n      swap1\n      tag_17\n      swap2\n      swap1\n      tag_18\n      jump\t// in\n    tag_17:\n      tag_19\n      jump\t// in\n    tag_16:\n      mload(0x40)\n      tag_20\n      swap2\n      swap1\n      tag_14\n      jump\t// in\n    tag_20:\n      mload(0x40)\n      dup1\n      swap2\n      sub\n      swap1\n      return\n        /* \"contracts/SavingsContract.sol\":696:917  function withdraw(uint _amount) public {... */\n    tag_4:\n      callvalue\n      dup1\n      iszero\n      tag_21\n      jumpi\n      0x00\n      dup1\n      revert\n    tag_21:\n      pop\n      tag_22\n      0x04\n      dup1\n      calldatasize\n      sub\n      dup2\n      add\n      swap1\n      tag_23\n      swap2\n      swap1\n      tag_24\n      jump\t// in\n    tag_23:\n      tag_25\n      jump\t// in\n    tag_22:\n      stop\n        /* \"contracts/SavingsContract.sol\":114:140  uint public minimumDeposit */\n    tag_5:\n      callvalue\n      dup1\n      iszero\n      tag_26\n      jumpi\n      0x00\n      dup1\n      revert\n    tag_26:\n      pop\n      tag_27\n      tag_28\n      jump\t// in\n    tag_27:\n      mload(0x40)\n      tag_29\n      swap2\n      swap1\n      tag_14\n      jump\t// in\n    tag_29:\n      mload(0x40)\n      dup1\n      swap2\n      sub\n      swap1\n      return\n        /* \"contracts/SavingsContract.sol\":88:108  address public owner */\n    tag_6:\n      callvalue\n      dup1\n      iszero\n      tag_30\n      jumpi\n      0x00\n      dup1\n      revert\n    tag_30:\n      pop\n      tag_31\n      tag_32\n      jump\t// in\n    tag_31:\n      mload(0x40)\n      tag_33\n      swap2\n      swap1\n      tag_34\n      jump\t// in\n    tag_33:\n      mload(0x40)\n      dup1\n      swap2\n      sub\n      swap1\n      return\n        /* \"contracts/SavingsContract.sol\":505:690  function deposit() public payable {... */\n    tag_7:\n      tag_35\n      tag_36\n      jump\t// in\n    tag_35:\n      stop\n        /* \"contracts/SavingsContract.sol\":384:499  function setMinimumDeposit(uint _minimumDeposit) public onlyOwner {... */\n    tag_8:\n      callvalue\n      dup1\n      iszero\n      tag_37\n      jumpi\n      0x00\n      dup1\n      revert\n    tag_37:\n      pop\n      tag_38\n      0x04\n      dup1\n      calldatasize\n      sub\n      dup2\n      add\n      swap1\n      tag_39\n      swap2\n      swap1\n      tag_24\n      jump\t// in\n    tag_39:\n      tag_40\n      jump\t// in\n    tag_38:\n      stop\n        /* \"contracts/SavingsContract.sol\":923:1016  function getBalance() public view returns (uint) {... */\n    tag_12:\n        /* \"contracts/SavingsContract.sol\":966:970  uint */\n      0x00\n        /* \"contracts/SavingsContract.sol\":989:997  balances */\n      0x02\n        /* \"contracts/SavingsContract.sol\":989:1009  balances[msg.sender] */\n      0x00\n        /* \"contracts/SavingsContract.sol\":998:1008  msg.sender */\n      caller\n        /* \"contracts/SavingsContract.sol\":989:1009  balances[msg.sender] */\n      0xffffffffffffffffffffffffffffffffffffffff\n      and\n      0xffffffffffffffffffffffffffffffffffffffff\n      and\n      dup2\n      mstore\n      0x20\n      add\n      swap1\n      dup2\n      mstore\n      0x20\n      add\n      0x00\n      keccak256\n      sload\n        /* \"contracts/SavingsContract.sol\":982:1009  return balances[msg.sender] */\n      swap1\n      pop\n        /* \"contracts/SavingsContract.sol\":923:1016  function getBalance() public view returns (uint) {... */\n      swap1\n      jump\t// out\n        /* \"contracts/SavingsContract.sol\":146:186  mapping(address => uint) public balances */\n    tag_19:\n      mstore(0x20, 0x02)\n      dup1\n      0x00\n      mstore\n      keccak256(0x00, 0x40)\n      0x00\n      swap2\n      pop\n      swap1\n      pop\n      sload\n      dup2\n      jump\t// out\n        /* \"contracts/SavingsContract.sol\":696:917  function withdraw(uint _amount) public {... */\n    tag_25:\n        /* \"contracts/SavingsContract.sol\":777:784  _amount */\n      dup1\n        /* \"contracts/SavingsContract.sol\":753:761  balances */\n      0x02\n        /* \"contracts/SavingsContract.sol\":753:773  balances[msg.sender] */\n      0x00\n        /* \"contracts/SavingsContract.sol\":762:772  msg.sender */\n      caller\n        /* \"contracts/SavingsContract.sol\":753:773  balances[msg.sender] */\n      0xffffffffffffffffffffffffffffffffffffffff\n      and\n      0xffffffffffffffffffffffffffffffffffffffff\n      and\n      dup2\n      mstore\n      0x20\n      add\n      swap1\n      dup2\n      mstore\n      0x20\n      add\n      0x00\n      keccak256\n      sload\n        /* \"contracts/SavingsContract.sol\":753:784  balances[msg.sender] >= _amount */\n      lt\n      iszero\n        /* \"contracts/SavingsContract.sol\":745:822  require(balances[msg.sender] >= _amount, \"Solde insuffisant pour le retrait\") */\n      tag_43\n      jumpi\n      mload(0x40)\n      0x08c379a000000000000000000000000000000000000000000000000000000000\n      dup2\n      mstore\n      0x04\n      add\n      tag_44\n      swap1\n      tag_45\n      jump\t// in\n    tag_44:\n      mload(0x40)\n      dup1\n      swap2\n      sub\n      swap1\n      revert\n    tag_43:\n        /* \"contracts/SavingsContract.sol\":856:863  _amount */\n      dup1\n        /* \"contracts/SavingsContract.sol\":832:840  balances */\n      0x02\n        /* \"contracts/SavingsContract.sol\":832:852  balances[msg.sender] */\n      0x00\n        /* \"contracts/SavingsContract.sol\":841:851  msg.sender */\n      caller\n        /* \"contracts/SavingsContract.sol\":832:852  balances[msg.sender] */\n      0xffffffffffffffffffffffffffffffffffffffff\n      and\n      0xffffffffffffffffffffffffffffffffffffffff\n      and\n      dup2\n      mstore\n      0x20\n      add\n      swap1\n      dup2\n      mstore\n      0x20\n      add\n      0x00\n      keccak256\n      0x00\n        /* \"contracts/SavingsContract.sol\":832:863  balances[msg.sender] -= _amount */\n      dup3\n      dup3\n      sload\n      tag_46\n      swap2\n      swap1\n      tag_47\n      jump\t// in\n    tag_46:\n      swap3\n      pop\n      pop\n      dup2\n      swap1\n      sstore\n      pop\n        /* \"contracts/SavingsContract.sol\":881:891  msg.sender */\n      caller\n        /* \"contracts/SavingsContract.sol\":873:901  payable(msg.sender).transfer */\n      0xffffffffffffffffffffffffffffffffffffffff\n      and\n        /* \"contracts/SavingsContract.sol\":873:910  payable(msg.sender).transfer(_amount) */\n      0x08fc\n        /* \"contracts/SavingsContract.sol\":902:909  _amount */\n      dup3\n        /* \"contracts/SavingsContract.sol\":873:910  payable(msg.sender).transfer(_amount) */\n      swap1\n      dup2\n      iszero\n      mul\n      swap1\n      mload(0x40)\n      0x00\n      mload(0x40)\n      dup1\n      dup4\n      sub\n      dup2\n      dup6\n      dup9\n      dup9\n      call\n      swap4\n      pop\n      pop\n      pop\n      pop\n      iszero\n      dup1\n      iszero\n      tag_49\n      jumpi\n      returndatasize\n      0x00\n      dup1\n      returndatacopy\n      revert(0x00, returndatasize)\n    tag_49:\n      pop\n        /* \"contracts/SavingsContract.sol\":696:917  function withdraw(uint _amount) public {... */\n      pop\n      jump\t// out\n        /* \"contracts/SavingsContract.sol\":114:140  uint public minimumDeposit */\n    tag_28:\n      sload(0x01)\n      dup2\n      jump\t// out\n        /* \"contracts/SavingsContract.sol\":88:108  address public owner */\n    tag_32:\n      0x00\n      dup1\n      sload\n      swap1\n      0x0100\n      exp\n      swap1\n      div\n      0xffffffffffffffffffffffffffffffffffffffff\n      and\n      dup2\n      jump\t// out\n        /* \"contracts/SavingsContract.sol\":505:690  function deposit() public payable {... */\n    tag_36:\n        /* \"contracts/SavingsContract.sol\":570:584  minimumDeposit */\n      sload(0x01)\n        /* \"contracts/SavingsContract.sol\":557:566  msg.value */\n      callvalue\n        /* \"contracts/SavingsContract.sol\":557:584  msg.value >= minimumDeposit */\n      lt\n      iszero\n        /* \"contracts/SavingsContract.sol\":549:640  require(msg.value >= minimumDeposit, \"Le montant du depot est inferieur au minimum requis\") */\n      tag_51\n      jumpi\n      mload(0x40)\n      0x08c379a000000000000000000000000000000000000000000000000000000000\n      dup2\n      mstore\n      0x04\n      add\n      tag_52\n      swap1\n      tag_53\n      jump\t// in\n    tag_52:\n      mload(0x40)\n      dup1\n      swap2\n      sub\n      swap1\n      revert\n    tag_51:\n        /* \"contracts/SavingsContract.sol\":674:683  msg.value */\n      callvalue\n        /* \"contracts/SavingsContract.sol\":650:658  balances */\n      0x02\n        /* \"contracts/SavingsContract.sol\":650:670  balances[msg.sender] */\n      0x00\n        /* \"contracts/SavingsContract.sol\":659:669  msg.sender */\n      caller\n        /* \"contracts/SavingsContract.sol\":650:670  balances[msg.sender] */\n      0xffffffffffffffffffffffffffffffffffffffff\n      and\n      0xffffffffffffffffffffffffffffffffffffffff\n      and\n      dup2\n      mstore\n      0x20\n      add\n      swap1\n      dup2\n      mstore\n      0x20\n      add\n      0x00\n      keccak256\n      0x00\n        /* \"contracts/SavingsContract.sol\":650:683  balances[msg.sender] += msg.value */\n      dup3\n      dup3\n      sload\n      tag_54\n      swap2\n      swap1\n      tag_55\n      jump\t// in\n    tag_54:\n      swap3\n      pop\n      pop\n      dup2\n      swap1\n      sstore\n      pop\n        /* \"contracts/SavingsContract.sol\":505:690  function deposit() public payable {... */\n      jump\t// out\n        /* \"contracts/SavingsContract.sol\":384:499  function setMinimumDeposit(uint _minimumDeposit) public onlyOwner {... */\n    tag_40:\n        /* \"contracts/SavingsContract.sol\":301:306  owner */\n      0x00\n      dup1\n      sload\n      swap1\n      0x0100\n      exp\n      swap1\n      div\n      0xffffffffffffffffffffffffffffffffffffffff\n      and\n        /* \"contracts/SavingsContract.sol\":287:306  msg.sender == owner */\n      0xffffffffffffffffffffffffffffffffffffffff\n      and\n        /* \"contracts/SavingsContract.sol\":287:297  msg.sender */\n      caller\n        /* \"contracts/SavingsContract.sol\":287:306  msg.sender == owner */\n      0xffffffffffffffffffffffffffffffffffffffff\n      and\n      eq\n        /* \"contracts/SavingsContract.sol\":279:360  require(msg.sender == owner, \"Seul le proprietaire peut executer cette fonction\") */\n      tag_57\n      jumpi\n      mload(0x40)\n      0x08c379a000000000000000000000000000000000000000000000000000000000\n      dup2\n      mstore\n      0x04\n      add\n      tag_58\n      swap1\n      tag_59\n      jump\t// in\n    tag_58:\n      mload(0x40)\n      dup1\n      swap2\n      sub\n      swap1\n      revert\n    tag_57:\n        /* \"contracts/SavingsContract.sol\":477:492  _minimumDeposit */\n      dup1\n        /* \"contracts/SavingsContract.sol\":460:474  minimumDeposit */\n      0x01\n        /* \"contracts/SavingsContract.sol\":460:492  minimumDeposit = _minimumDeposit */\n      dup2\n      swap1\n      sstore\n      pop\n        /* \"contracts/SavingsContract.sol\":384:499  function setMinimumDeposit(uint _minimumDeposit) public onlyOwner {... */\n      pop\n      jump\t// out\n        /* \"#utility.yul\":7:84   */\n    tag_61:\n        /* \"#utility.yul\":44:51   */\n      0x00\n        /* \"#utility.yul\":73:78   */\n      dup2\n        /* \"#utility.yul\":62:78   */\n      swap1\n      pop\n        /* \"#utility.yul\":7:84   */\n      swap2\n      swap1\n      pop\n      jump\t// out\n        /* \"#utility.yul\":90:208   */\n    tag_62:\n        /* \"#utility.yul\":177:201   */\n      tag_84\n        /* \"#utility.yul\":195:200   */\n      dup2\n        /* \"#utility.yul\":177:201   */\n      tag_61\n      jump\t// in\n    tag_84:\n        /* \"#utility.yul\":172:175   */\n      dup3\n        /* \"#utility.yul\":165:202   */\n      mstore\n        /* \"#utility.yul\":90:208   */\n      pop\n      pop\n      jump\t// out\n        /* \"#utility.yul\":214:436   */\n    tag_14:\n        /* \"#utility.yul\":307:311   */\n      0x00\n        /* \"#utility.yul\":345:347   */\n      0x20\n        /* \"#utility.yul\":334:343   */\n      dup3\n        /* \"#utility.yul\":330:348   */\n      add\n        /* \"#utility.yul\":322:348   */\n      swap1\n      pop\n        /* \"#utility.yul\":358:429   */\n      tag_86\n        /* \"#utility.yul\":426:427   */\n      0x00\n        /* \"#utility.yul\":415:424   */\n      dup4\n        /* \"#utility.yul\":411:428   */\n      add\n        /* \"#utility.yul\":402:408   */\n      dup5\n        /* \"#utility.yul\":358:429   */\n      tag_62\n      jump\t// in\n    tag_86:\n        /* \"#utility.yul\":214:436   */\n      swap3\n      swap2\n      pop\n      pop\n      jump\t// out\n        /* \"#utility.yul\":523:640   */\n    tag_64:\n        /* \"#utility.yul\":632:633   */\n      0x00\n        /* \"#utility.yul\":629:630   */\n      dup1\n        /* \"#utility.yul\":622:634   */\n      revert\n        /* \"#utility.yul\":769:895   */\n    tag_66:\n        /* \"#utility.yul\":806:813   */\n      0x00\n        /* \"#utility.yul\":846:888   */\n      0xffffffffffffffffffffffffffffffffffffffff\n        /* \"#utility.yul\":839:844   */\n      dup3\n        /* \"#utility.yul\":835:889   */\n      and\n        /* \"#utility.yul\":824:889   */\n      swap1\n      pop\n        /* \"#utility.yul\":769:895   */\n      swap2\n      swap1\n      pop\n      jump\t// out\n        /* \"#utility.yul\":901:997   */\n    tag_67:\n        /* \"#utility.yul\":938:945   */\n      0x00\n        /* \"#utility.yul\":967:991   */\n      tag_92\n        /* \"#utility.yul\":985:990   */\n      dup3\n        /* \"#utility.yul\":967:991   */\n      tag_66\n      jump\t// in\n    tag_92:\n        /* \"#utility.yul\":956:991   */\n      swap1\n      pop\n        /* \"#utility.yul\":901:997   */\n      swap2\n      swap1\n      pop\n      jump\t// out\n        /* \"#utility.yul\":1003:1125   */\n    tag_68:\n        /* \"#utility.yul\":1076:1100   */\n      tag_94\n        /* \"#utility.yul\":1094:1099   */\n      dup2\n        /* \"#utility.yul\":1076:1100   */\n      tag_67\n      jump\t// in\n    tag_94:\n        /* \"#utility.yul\":1069:1074   */\n      dup2\n        /* \"#utility.yul\":1066:1101   */\n      eq\n        /* \"#utility.yul\":1056:1119   */\n      tag_95\n      jumpi\n        /* \"#utility.yul\":1115:1116   */\n      0x00\n        /* \"#utility.yul\":1112:1113   */\n      dup1\n        /* \"#utility.yul\":1105:1117   */\n      revert\n        /* \"#utility.yul\":1056:1119   */\n    tag_95:\n        /* \"#utility.yul\":1003:1125   */\n      pop\n      jump\t// out\n        /* \"#utility.yul\":1131:1270   */\n    tag_69:\n        /* \"#utility.yul\":1177:1182   */\n      0x00\n        /* \"#utility.yul\":1215:1221   */\n      dup2\n        /* \"#utility.yul\":1202:1222   */\n      calldataload\n        /* \"#utility.yul\":1193:1222   */\n      swap1\n      pop\n        /* \"#utility.yul\":1231:1264   */\n      tag_97\n        /* \"#utility.yul\":1258:1263   */\n      dup2\n        /* \"#utility.yul\":1231:1264   */\n      tag_68\n      jump\t// in\n    tag_97:\n        /* \"#utility.yul\":1131:1270   */\n      swap3\n      swap2\n      pop\n      pop\n      jump\t// out\n        /* \"#utility.yul\":1276:1605   */\n    tag_18:\n        /* \"#utility.yul\":1335:1341   */\n      0x00\n        /* \"#utility.yul\":1384:1386   */\n      0x20\n        /* \"#utility.yul\":1372:1381   */\n      dup3\n        /* \"#utility.yul\":1363:1370   */\n      dup5\n        /* \"#utility.yul\":1359:1382   */\n      sub\n        /* \"#utility.yul\":1355:1387   */\n      slt\n        /* \"#utility.yul\":1352:1471   */\n      iszero\n      tag_99\n      jumpi\n        /* \"#utility.yul\":1390:1469   */\n      tag_100\n      tag_64\n      jump\t// in\n    tag_100:\n        /* \"#utility.yul\":1352:1471   */\n    tag_99:\n        /* \"#utility.yul\":1510:1511   */\n      0x00\n        /* \"#utility.yul\":1535:1588   */\n      tag_101\n        /* \"#utility.yul\":1580:1587   */\n      dup5\n        /* \"#utility.yul\":1571:1577   */\n      dup3\n        /* \"#utility.yul\":1560:1569   */\n      dup6\n        /* \"#utility.yul\":1556:1578   */\n      add\n        /* \"#utility.yul\":1535:1588   */\n      tag_69\n      jump\t// in\n    tag_101:\n        /* \"#utility.yul\":1525:1588   */\n      swap2\n      pop\n        /* \"#utility.yul\":1481:1598   */\n      pop\n        /* \"#utility.yul\":1276:1605   */\n      swap3\n      swap2\n      pop\n      pop\n      jump\t// out\n        /* \"#utility.yul\":1611:1733   */\n    tag_70:\n        /* \"#utility.yul\":1684:1708   */\n      tag_103\n        /* \"#utility.yul\":1702:1707   */\n      dup2\n        /* \"#utility.yul\":1684:1708   */\n      tag_61\n      jump\t// in\n    tag_103:\n        /* \"#utility.yul\":1677:1682   */\n      dup2\n        /* \"#utility.yul\":1674:1709   */\n      eq\n        /* \"#utility.yul\":1664:1727   */\n      tag_104\n      jumpi\n        /* \"#utility.yul\":1723:1724   */\n      0x00\n        /* \"#utility.yul\":1720:1721   */\n      dup1\n        /* \"#utility.yul\":1713:1725   */\n      revert\n        /* \"#utility.yul\":1664:1727   */\n    tag_104:\n        /* \"#utility.yul\":1611:1733   */\n      pop\n      jump\t// out\n        /* \"#utility.yul\":1739:1878   */\n    tag_71:\n        /* \"#utility.yul\":1785:1790   */\n      0x00\n        /* \"#utility.yul\":1823:1829   */\n      dup2\n        /* \"#utility.yul\":1810:1830   */\n      calldataload\n        /* \"#utility.yul\":1801:1830   */\n      swap1\n      pop\n        /* \"#utility.yul\":1839:1872   */\n      tag_106\n        /* \"#utility.yul\":1866:1871   */\n      dup2\n        /* \"#utility.yul\":1839:1872   */\n      tag_70\n      jump\t// in\n    tag_106:\n        /* \"#utility.yul\":1739:1878   */\n      swap3\n      swap2\n      pop\n      pop\n      jump\t// out\n        /* \"#utility.yul\":1884:2213   */\n    tag_24:\n        /* \"#utility.yul\":1943:1949   */\n      0x00\n        /* \"#utility.yul\":1992:1994   */\n      0x20\n        /* \"#utility.yul\":1980:1989   */\n      dup3\n        /* \"#utility.yul\":1971:1978   */\n      dup5\n        /* \"#utility.yul\":1967:1990   */\n      sub\n        /* \"#utility.yul\":1963:1995   */\n      slt\n        /* \"#utility.yul\":1960:2079   */\n      iszero\n      tag_108\n      jumpi\n        /* \"#utility.yul\":1998:2077   */\n      tag_109\n      tag_64\n      jump\t// in\n    tag_109:\n        /* \"#utility.yul\":1960:2079   */\n    tag_108:\n        /* \"#utility.yul\":2118:2119   */\n      0x00\n        /* \"#utility.yul\":2143:2196   */\n      tag_110\n        /* \"#utility.yul\":2188:2195   */\n      dup5\n        /* \"#utility.yul\":2179:2185   */\n      dup3\n        /* \"#utility.yul\":2168:2177   */\n      dup6\n        /* \"#utility.yul\":2164:2186   */\n      add\n        /* \"#utility.yul\":2143:2196   */\n      tag_71\n      jump\t// in\n    tag_110:\n        /* \"#utility.yul\":2133:2196   */\n      swap2\n      pop\n        /* \"#utility.yul\":2089:2206   */\n      pop\n        /* \"#utility.yul\":1884:2213   */\n      swap3\n      swap2\n      pop\n      pop\n      jump\t// out\n        /* \"#utility.yul\":2219:2337   */\n    tag_72:\n        /* \"#utility.yul\":2306:2330   */\n      tag_112\n        /* \"#utility.yul\":2324:2329   */\n      dup2\n        /* \"#utility.yul\":2306:2330   */\n      tag_67\n      jump\t// in\n    tag_112:\n        /* \"#utility.yul\":2301:2304   */\n      dup3\n        /* \"#utility.yul\":2294:2331   */\n      mstore\n        /* \"#utility.yul\":2219:2337   */\n      pop\n      pop\n      jump\t// out\n        /* \"#utility.yul\":2343:2565   */\n    tag_34:\n        /* \"#utility.yul\":2436:2440   */\n      0x00\n        /* \"#utility.yul\":2474:2476   */\n      0x20\n        /* \"#utility.yul\":2463:2472   */\n      dup3\n        /* \"#utility.yul\":2459:2477   */\n      add\n        /* \"#utility.yul\":2451:2477   */\n      swap1\n      pop\n        /* \"#utility.yul\":2487:2558   */\n      tag_114\n        /* \"#utility.yul\":2555:2556   */\n      0x00\n        /* \"#utility.yul\":2544:2553   */\n      dup4\n        /* \"#utility.yul\":2540:2557   */\n      add\n        /* \"#utility.yul\":2531:2537   */\n      dup5\n        /* \"#utility.yul\":2487:2558   */\n      tag_72\n      jump\t// in\n    tag_114:\n        /* \"#utility.yul\":2343:2565   */\n      swap3\n      swap2\n      pop\n      pop\n      jump\t// out\n        /* \"#utility.yul\":2571:2740   */\n    tag_73:\n        /* \"#utility.yul\":2655:2666   */\n      0x00\n        /* \"#utility.yul\":2689:2695   */\n      dup3\n        /* \"#utility.yul\":2684:2687   */\n      dup3\n        /* \"#utility.yul\":2677:2696   */\n      mstore\n        /* \"#utility.yul\":2729:2733   */\n      0x20\n        /* \"#utility.yul\":2724:2727   */\n      dup3\n        /* \"#utility.yul\":2720:2734   */\n      add\n        /* \"#utility.yul\":2705:2734   */\n      swap1\n      pop\n        /* \"#utility.yul\":2571:2740   */\n      swap3\n      swap2\n      pop\n      pop\n      jump\t// out\n        /* \"#utility.yul\":2746:2966   */\n    tag_74:\n        /* \"#utility.yul\":2886:2920   */\n      0x536f6c646520696e737566666973616e7420706f7572206c6520726574726169\n        /* \"#utility.yul\":2882:2883   */\n      0x00\n        /* \"#utility.yul\":2874:2880   */\n      dup3\n        /* \"#utility.yul\":2870:2884   */\n      add\n        /* \"#utility.yul\":2863:2921   */\n      mstore\n        /* \"#utility.yul\":2955:2958   */\n      0x7400000000000000000000000000000000000000000000000000000000000000\n        /* \"#utility.yul\":2950:2952   */\n      0x20\n        /* \"#utility.yul\":2942:2948   */\n      dup3\n        /* \"#utility.yul\":2938:2953   */\n      add\n        /* \"#utility.yul\":2931:2959   */\n      mstore\n        /* \"#utility.yul\":2746:2966   */\n      pop\n      jump\t// out\n        /* \"#utility.yul\":2972:3338   */\n    tag_75:\n        /* \"#utility.yul\":3114:3117   */\n      0x00\n        /* \"#utility.yul\":3135:3202   */\n      tag_118\n        /* \"#utility.yul\":3199:3201   */\n      0x21\n        /* \"#utility.yul\":3194:3197   */\n      dup4\n        /* \"#utility.yul\":3135:3202   */\n      tag_73\n      jump\t// in\n    tag_118:\n        /* \"#utility.yul\":3128:3202   */\n      swap2\n      pop\n        /* \"#utility.yul\":3211:3304   */\n      tag_119\n        /* \"#utility.yul\":3300:3303   */\n      dup3\n        /* \"#utility.yul\":3211:3304   */\n      tag_74\n      jump\t// in\n    tag_119:\n        /* \"#utility.yul\":3329:3331   */\n      0x40\n        /* \"#utility.yul\":3324:3327   */\n      dup3\n        /* \"#utility.yul\":3320:3332   */\n      add\n        /* \"#utility.yul\":3313:3332   */\n      swap1\n      pop\n        /* \"#utility.yul\":2972:3338   */\n      swap2\n      swap1\n      pop\n      jump\t// out\n        /* \"#utility.yul\":3344:3763   */\n    tag_45:\n        /* \"#utility.yul\":3510:3514   */\n      0x00\n        /* \"#utility.yul\":3548:3550   */\n      0x20\n        /* \"#utility.yul\":3537:3546   */\n      dup3\n        /* \"#utility.yul\":3533:3551   */\n      add\n        /* \"#utility.yul\":3525:3551   */\n      swap1\n      pop\n        /* \"#utility.yul\":3597:3606   */\n      dup2\n        /* \"#utility.yul\":3591:3595   */\n      dup2\n        /* \"#utility.yul\":3587:3607   */\n      sub\n        /* \"#utility.yul\":3583:3584   */\n      0x00\n        /* \"#utility.yul\":3572:3581   */\n      dup4\n        /* \"#utility.yul\":3568:3585   */\n      add\n        /* \"#utility.yul\":3561:3608   */\n      mstore\n        /* \"#utility.yul\":3625:3756   */\n      tag_121\n        /* \"#utility.yul\":3751:3755   */\n      dup2\n        /* \"#utility.yul\":3625:3756   */\n      tag_75\n      jump\t// in\n    tag_121:\n        /* \"#utility.yul\":3617:3756   */\n      swap1\n      pop\n        /* \"#utility.yul\":3344:3763   */\n      swap2\n      swap1\n      pop\n      jump\t// out\n        /* \"#utility.yul\":3769:3949   */\n    tag_76:\n        /* \"#utility.yul\":3817:3894   */\n      0x4e487b7100000000000000000000000000000000000000000000000000000000\n        /* \"#utility.yul\":3814:3815   */\n      0x00\n        /* \"#utility.yul\":3807:3895   */\n      mstore\n        /* \"#utility.yul\":3914:3918   */\n      0x11\n        /* \"#utility.yul\":3911:3912   */\n      0x04\n        /* \"#utility.yul\":3904:3919   */\n      mstore\n        /* \"#utility.yul\":3938:3942   */\n      0x24\n        /* \"#utility.yul\":3935:3936   */\n      0x00\n        /* \"#utility.yul\":3928:3943   */\n      revert\n        /* \"#utility.yul\":3955:4149   */\n    tag_47:\n        /* \"#utility.yul\":3995:3999   */\n      0x00\n        /* \"#utility.yul\":4015:4035   */\n      tag_124\n        /* \"#utility.yul\":4033:4034   */\n      dup3\n        /* \"#utility.yul\":4015:4035   */\n      tag_61\n      jump\t// in\n    tag_124:\n        /* \"#utility.yul\":4010:4035   */\n      swap2\n      pop\n        /* \"#utility.yul\":4049:4069   */\n      tag_125\n        /* \"#utility.yul\":4067:4068   */\n      dup4\n        /* \"#utility.yul\":4049:4069   */\n      tag_61\n      jump\t// in\n    tag_125:\n        /* \"#utility.yul\":4044:4069   */\n      swap3\n      pop\n        /* \"#utility.yul\":4093:4094   */\n      dup3\n        /* \"#utility.yul\":4090:4091   */\n      dup3\n        /* \"#utility.yul\":4086:4095   */\n      sub\n        /* \"#utility.yul\":4078:4095   */\n      swap1\n      pop\n        /* \"#utility.yul\":4117:4118   */\n      dup2\n        /* \"#utility.yul\":4111:4115   */\n      dup2\n        /* \"#utility.yul\":4108:4119   */\n      gt\n        /* \"#utility.yul\":4105:4142   */\n      iszero\n      tag_126\n      jumpi\n        /* \"#utility.yul\":4122:4140   */\n      tag_127\n      tag_76\n      jump\t// in\n    tag_127:\n        /* \"#utility.yul\":4105:4142   */\n    tag_126:\n        /* \"#utility.yul\":3955:4149   */\n      swap3\n      swap2\n      pop\n      pop\n      jump\t// out\n        /* \"#utility.yul\":4155:4393   */\n    tag_77:\n        /* \"#utility.yul\":4295:4329   */\n      0x4c65206d6f6e74616e74206475206465706f742065737420696e666572696575\n        /* \"#utility.yul\":4291:4292   */\n      0x00\n        /* \"#utility.yul\":4283:4289   */\n      dup3\n        /* \"#utility.yul\":4279:4293   */\n      add\n        /* \"#utility.yul\":4272:4330   */\n      mstore\n        /* \"#utility.yul\":4364:4385   */\n      0x72206175206d696e696d756d2072657175697300000000000000000000000000\n        /* \"#utility.yul\":4359:4361   */\n      0x20\n        /* \"#utility.yul\":4351:4357   */\n      dup3\n        /* \"#utility.yul\":4347:4362   */\n      add\n        /* \"#utility.yul\":4340:4386   */\n      mstore\n        /* \"#utility.yul\":4155:4393   */\n      pop\n      jump\t// out\n        /* \"#utility.yul\":4399:4765   */\n    tag_78:\n        /* \"#utility.yul\":4541:4544   */\n      0x00\n        /* \"#utility.yul\":4562:4629   */\n      tag_130\n        /* \"#utility.yul\":4626:4628   */\n      0x33\n        /* \"#utility.yul\":4621:4624   */\n      dup4\n        /* \"#utility.yul\":4562:4629   */\n      tag_73\n      jump\t// in\n    tag_130:\n        /* \"#utility.yul\":4555:4629   */\n      swap2\n      pop\n        /* \"#utility.yul\":4638:4731   */\n      tag_131\n        /* \"#utility.yul\":4727:4730   */\n      dup3\n        /* \"#utility.yul\":4638:4731   */\n      tag_77\n      jump\t// in\n    tag_131:\n        /* \"#utility.yul\":4756:4758   */\n      0x40\n        /* \"#utility.yul\":4751:4754   */\n      dup3\n        /* \"#utility.yul\":4747:4759   */\n      add\n        /* \"#utility.yul\":4740:4759   */\n      swap1\n      pop\n        /* \"#utility.yul\":4399:4765   */\n      swap2\n      swap1\n      pop\n      jump\t// out\n        /* \"#utility.yul\":4771:5190   */\n    tag_53:\n        /* \"#utility.yul\":4937:4941   */\n      0x00\n        /* \"#utility.yul\":4975:4977   */\n      0x20\n        /* \"#utility.yul\":4964:4973   */\n      dup3\n        /* \"#utility.yul\":4960:4978   */\n      add\n        /* \"#utility.yul\":4952:4978   */\n      swap1\n      pop\n        /* \"#utility.yul\":5024:5033   */\n      dup2\n        /* \"#utility.yul\":5018:5022   */\n      dup2\n        /* \"#utility.yul\":5014:5034   */\n      sub\n        /* \"#utility.yul\":5010:5011   */\n      0x00\n        /* \"#utility.yul\":4999:5008   */\n      dup4\n        /* \"#utility.yul\":4995:5012   */\n      add\n        /* \"#utility.yul\":4988:5035   */\n      mstore\n        /* \"#utility.yul\":5052:5183   */\n      tag_133\n        /* \"#utility.yul\":5178:5182   */\n      dup2\n        /* \"#utility.yul\":5052:5183   */\n      tag_78\n      jump\t// in\n    tag_133:\n        /* \"#utility.yul\":5044:5183   */\n      swap1\n      pop\n        /* \"#utility.yul\":4771:5190   */\n      swap2\n      swap1\n      pop\n      jump\t// out\n        /* \"#utility.yul\":5196:5387   */\n    tag_55:\n        /* \"#utility.yul\":5236:5239   */\n      0x00\n        /* \"#utility.yul\":5255:5275   */\n      tag_135\n        /* \"#utility.yul\":5273:5274   */\n      dup3\n        /* \"#utility.yul\":5255:5275   */\n      tag_61\n      jump\t// in\n    tag_135:\n        /* \"#utility.yul\":5250:5275   */\n      swap2\n      pop\n        /* \"#utility.yul\":5289:5309   */\n      tag_136\n        /* \"#utility.yul\":5307:5308   */\n      dup4\n        /* \"#utility.yul\":5289:5309   */\n      tag_61\n      jump\t// in\n    tag_136:\n        /* \"#utility.yul\":5284:5309   */\n      swap3\n      pop\n        /* \"#utility.yul\":5332:5333   */\n      dup3\n        /* \"#utility.yul\":5329:5330   */\n      dup3\n        /* \"#utility.yul\":5325:5334   */\n      add\n        /* \"#utility.yul\":5318:5334   */\n      swap1\n      pop\n        /* \"#utility.yul\":5353:5356   */\n      dup1\n        /* \"#utility.yul\":5350:5351   */\n      dup3\n        /* \"#utility.yul\":5347:5357   */\n      gt\n        /* \"#utility.yul\":5344:5380   */\n      iszero\n      tag_137\n      jumpi\n        /* \"#utility.yul\":5360:5378   */\n      tag_138\n      tag_76\n      jump\t// in\n    tag_138:\n        /* \"#utility.yul\":5344:5380   */\n    tag_137:\n        /* \"#utility.yul\":5196:5387   */\n      swap3\n      swap2\n      pop\n      pop\n      jump\t// out\n        /* \"#utility.yul\":5393:5629   */\n    tag_79:\n        /* \"#utility.yul\":5533:5567   */\n      0x5365756c206c652070726f707269657461697265207065757420657865637574\n        /* \"#utility.yul\":5529:5530   */\n      0x00\n        /* \"#utility.yul\":5521:5527   */\n      dup3\n        /* \"#utility.yul\":5517:5531   */\n      add\n        /* \"#utility.yul\":5510:5568   */\n      mstore\n        /* \"#utility.yul\":5602:5621   */\n      0x657220636574746520666f6e6374696f6e000000000000000000000000000000\n        /* \"#utility.yul\":5597:5599   */\n      0x20\n        /* \"#utility.yul\":5589:5595   */\n      dup3\n        /* \"#utility.yul\":5585:5600   */\n      add\n        /* \"#utility.yul\":5578:5622   */\n      mstore\n        /* \"#utility.yul\":5393:5629   */\n      pop\n      jump\t// out\n        /* \"#utility.yul\":5635:6001   */\n    tag_80:\n        /* \"#utility.yul\":5777:5780   */\n      0x00\n        /* \"#utility.yul\":5798:5865   */\n      tag_141\n        /* \"#utility.yul\":5862:5864   */\n      0x31\n        /* \"#utility.yul\":5857:5860   */\n      dup4\n        /* \"#utility.yul\":5798:5865   */\n      tag_73\n      jump\t// in\n    tag_141:\n        /* \"#utility.yul\":5791:5865   */\n      swap2\n      pop\n        /* \"#utility.yul\":5874:5967   */\n      tag_142\n        /* \"#utility.yul\":5963:5966   */\n      dup3\n        /* \"#utility.yul\":5874:5967   */\n      tag_79\n      jump\t// in\n    tag_142:\n        /* \"#utility.yul\":5992:5994   */\n      0x40\n        /* \"#utility.yul\":5987:5990   */\n      dup3\n        /* \"#utility.yul\":5983:5995   */\n      add\n        /* \"#utility.yul\":5976:5995   */\n      swap1\n      pop\n        /* \"#utility.yul\":5635:6001   */\n      swap2\n      swap1\n      pop\n      jump\t// out\n        /* \"#utility.yul\":6007:6426   */\n    tag_59:\n        /* \"#utility.yul\":6173:6177   */\n      0x00\n        /* \"#utility.yul\":6211:6213   */\n      0x20\n        /* \"#utility.yul\":6200:6209   */\n      dup3\n        /* \"#utility.yul\":6196:6214   */\n      add\n        /* \"#utility.yul\":6188:6214   */\n      swap1\n      pop\n        /* \"#utility.yul\":6260:6269   */\n      dup2\n        /* \"#utility.yul\":6254:6258   */\n      dup2\n        /* \"#utility.yul\":6250:6270   */\n      sub\n        /* \"#utility.yul\":6246:6247   */\n      0x00\n        /* \"#utility.yul\":6235:6244   */\n      dup4\n        /* \"#utility.yul\":6231:6248   */\n      add\n        /* \"#utility.yul\":6224:6271   */\n      mstore\n        /* \"#utility.yul\":6288:6419   */\n      tag_144\n        /* \"#utility.yul\":6414:6418   */\n      dup2\n        /* \"#utility.yul\":6288:6419   */\n      tag_80\n      jump\t// in\n    tag_144:\n        /* \"#utility.yul\":6280:6419   */\n      swap1\n      pop\n        /* \"#utility.yul\":6007:6426   */\n      swap2\n      swap1\n      pop\n      jump\t// out\n\n    auxdata: 0xa2646970667358221220ab728fa5d02d6a1e4f8f540c2fca03ff3b96f9ae4012c8651b036da26d20be8764736f6c634300081a0033\n}\n",
				"bytecode": {
					"linkReferences": {},
					"object": "6080604052348015600e575f80fd5b50335f806101000a81548173ffffffffffffffffffffffffffffffffffffffff021916908373ffffffffffffffffffffffffffffffffffffffff16021790555061080e8061005b5f395ff3fe60806040526004361061006f575f3560e01c8063636bfbab1161004d578063636bfbab146101015780638da5cb5b1461012b578063d0e30db014610155578063e78ec42e1461015f5761006f565b806312065fe01461007357806327e235e31461009d5780632e1a7d4d146100d9575b5f80fd5b34801561007e575f80fd5b50610087610187565b604051610094919061046c565b60405180910390f35b3480156100a8575f80fd5b506100c360048036038101906100be91906104e3565b6101cb565b6040516100d0919061046c565b60405180910390f35b3480156100e4575f80fd5b506100ff60048036038101906100fa9190610538565b6101e0565b005b34801561010c575f80fd5b506101156102fa565b604051610122919061046c565b60405180910390f35b348015610136575f80fd5b5061013f610300565b60405161014c9190610572565b60405180910390f35b61015d610323565b005b34801561016a575f80fd5b5061018560048036038101906101809190610538565b6103bd565b005b5f60025f3373ffffffffffffffffffffffffffffffffffffffff1673ffffffffffffffffffffffffffffffffffffffff1681526020019081526020015f2054905090565b6002602052805f5260405f205f915090505481565b8060025f3373ffffffffffffffffffffffffffffffffffffffff1673ffffffffffffffffffffffffffffffffffffffff1681526020019081526020015f20541015610260576040517f08c379a00000000000000000000000000000000000000000000000000000000081526004016102579061060b565b60405180910390fd5b8060025f3373ffffffffffffffffffffffffffffffffffffffff1673ffffffffffffffffffffffffffffffffffffffff1681526020019081526020015f205f8282546102ac9190610656565b925050819055503373ffffffffffffffffffffffffffffffffffffffff166108fc8290811502906040515f60405180830381858888f193505050501580156102f6573d5f803e3d5ffd5b5050565b60015481565b5f8054906101000a900473ffffffffffffffffffffffffffffffffffffffff1681565b600154341015610368576040517f08c379a000000000000000000000000000000000000000000000000000000000815260040161035f906106f9565b60405180910390fd5b3460025f3373ffffffffffffffffffffffffffffffffffffffff1673ffffffffffffffffffffffffffffffffffffffff1681526020019081526020015f205f8282546103b49190610717565b92505081905550565b5f8054906101000a900473ffffffffffffffffffffffffffffffffffffffff1673ffffffffffffffffffffffffffffffffffffffff163373ffffffffffffffffffffffffffffffffffffffff161461044a576040517f08c379a0000000000000000000000000000000000000000000000000000000008152600401610441906107ba565b60405180910390fd5b8060018190555050565b5f819050919050565b61046681610454565b82525050565b5f60208201905061047f5f83018461045d565b92915050565b5f80fd5b5f73ffffffffffffffffffffffffffffffffffffffff82169050919050565b5f6104b282610489565b9050919050565b6104c2816104a8565b81146104cc575f80fd5b50565b5f813590506104dd816104b9565b92915050565b5f602082840312156104f8576104f7610485565b5b5f610505848285016104cf565b91505092915050565b61051781610454565b8114610521575f80fd5b50565b5f813590506105328161050e565b92915050565b5f6020828403121561054d5761054c610485565b5b5f61055a84828501610524565b91505092915050565b61056c816104a8565b82525050565b5f6020820190506105855f830184610563565b92915050565b5f82825260208201905092915050565b7f536f6c646520696e737566666973616e7420706f7572206c65207265747261695f8201527f7400000000000000000000000000000000000000000000000000000000000000602082015250565b5f6105f560218361058b565b91506106008261059b565b604082019050919050565b5f6020820190508181035f830152610622816105e9565b9050919050565b7f4e487b71000000000000000000000000000000000000000000000000000000005f52601160045260245ffd5b5f61066082610454565b915061066b83610454565b925082820390508181111561068357610682610629565b5b92915050565b7f4c65206d6f6e74616e74206475206465706f742065737420696e6665726965755f8201527f72206175206d696e696d756d2072657175697300000000000000000000000000602082015250565b5f6106e360338361058b565b91506106ee82610689565b604082019050919050565b5f6020820190508181035f830152610710816106d7565b9050919050565b5f61072182610454565b915061072c83610454565b925082820190508082111561074457610743610629565b5b92915050565b7f5365756c206c652070726f7072696574616972652070657574206578656375745f8201527f657220636574746520666f6e6374696f6e000000000000000000000000000000602082015250565b5f6107a460318361058b565b91506107af8261074a565b604082019050919050565b5f6020820190508181035f8301526107d181610798565b905091905056fea2646970667358221220ab728fa5d02d6a1e4f8f540c2fca03ff3b96f9ae4012c8651b036da26d20be8764736f6c634300081a0033",
					"opcodes": "PUSH1 0x80 PUSH1 0x40 MSTORE CALLVALUE DUP1 ISZERO PUSH1 0xE JUMPI PUSH0 DUP1 REVERT JUMPDEST POP CALLER PUSH0 DUP1 PUSH2 0x100 EXP DUP2 SLOAD DUP2 PUSH20 0xFFFFFFFFFFFFFFFFFFFFFFFFFFFFFFFFFFFFFFFF MUL NOT AND SWAP1 DUP4 PUSH20 0xFFFFFFFFFFFFFFFFFFFFFFFFFFFFFFFFFFFFFFFF AND MUL OR SWAP1 SSTORE POP PUSH2 0x80E DUP1 PUSH2 0x5B PUSH0 CODECOPY PUSH0 RETURN INVALID PUSH1 0x80 PUSH1 0x40 MSTORE PUSH1 0x4 CALLDATASIZE LT PUSH2 0x6F JUMPI PUSH0 CALLDATALOAD PUSH1 0xE0 SHR DUP1 PUSH4 0x636BFBAB GT PUSH2 0x4D JUMPI DUP1 PUSH4 0x636BFBAB EQ PUSH2 0x101 JUMPI DUP1 PUSH4 0x8DA5CB5B EQ PUSH2 0x12B JUMPI DUP1 PUSH4 0xD0E30DB0 EQ PUSH2 0x155 JUMPI DUP1 PUSH4 0xE78EC42E EQ PUSH2 0x15F JUMPI PUSH2 0x6F JUMP JUMPDEST DUP1 PUSH4 0x12065FE0 EQ PUSH2 0x73 JUMPI DUP1 PUSH4 0x27E235E3 EQ PUSH2 0x9D JUMPI DUP1 PUSH4 0x2E1A7D4D EQ PUSH2 0xD9 JUMPI JUMPDEST PUSH0 DUP1 REVERT JUMPDEST CALLVALUE DUP1 ISZERO PUSH2 0x7E JUMPI PUSH0 DUP1 REVERT JUMPDEST POP PUSH2 0x87 PUSH2 0x187 JUMP JUMPDEST PUSH1 0x40 MLOAD PUSH2 0x94 SWAP2 SWAP1 PUSH2 0x46C JUMP JUMPDEST PUSH1 0x40 MLOAD DUP1 SWAP2 SUB SWAP1 RETURN JUMPDEST CALLVALUE DUP1 ISZERO PUSH2 0xA8 JUMPI PUSH0 DUP1 REVERT JUMPDEST POP PUSH2 0xC3 PUSH1 0x4 DUP1 CALLDATASIZE SUB DUP2 ADD SWAP1 PUSH2 0xBE SWAP2 SWAP1 PUSH2 0x4E3 JUMP JUMPDEST PUSH2 0x1CB JUMP JUMPDEST PUSH1 0x40 MLOAD PUSH2 0xD0 SWAP2 SWAP1 PUSH2 0x46C JUMP JUMPDEST PUSH1 0x40 MLOAD DUP1 SWAP2 SUB SWAP1 RETURN JUMPDEST CALLVALUE DUP1 ISZERO PUSH2 0xE4 JUMPI PUSH0 DUP1 REVERT JUMPDEST POP PUSH2 0xFF PUSH1 0x4 DUP1 CALLDATASIZE SUB DUP2 ADD SWAP1 PUSH2 0xFA SWAP2 SWAP1 PUSH2 0x538 JUMP JUMPDEST PUSH2 0x1E0 JUMP JUMPDEST STOP JUMPDEST CALLVALUE DUP1 ISZERO PUSH2 0x10C JUMPI PUSH0 DUP1 REVERT JUMPDEST POP PUSH2 0x115 PUSH2 0x2FA JUMP JUMPDEST PUSH1 0x40 MLOAD PUSH2 0x122 SWAP2 SWAP1 PUSH2 0x46C JUMP JUMPDEST PUSH1 0x40 MLOAD DUP1 SWAP2 SUB SWAP1 RETURN JUMPDEST CALLVALUE DUP1 ISZERO PUSH2 0x136 JUMPI PUSH0 DUP1 REVERT JUMPDEST POP PUSH2 0x13F PUSH2 0x300 JUMP JUMPDEST PUSH1 0x40 MLOAD PUSH2 0x14C SWAP2 SWAP1 PUSH2 0x572 JUMP JUMPDEST PUSH1 0x40 MLOAD DUP1 SWAP2 SUB SWAP1 RETURN JUMPDEST PUSH2 0x15D PUSH2 0x323 JUMP JUMPDEST STOP JUMPDEST CALLVALUE DUP1 ISZERO PUSH2 0x16A JUMPI PUSH0 DUP1 REVERT JUMPDEST POP PUSH2 0x185 PUSH1 0x4 DUP1 CALLDATASIZE SUB DUP2 ADD SWAP1 PUSH2 0x180 SWAP2 SWAP1 PUSH2 0x538 JUMP JUMPDEST PUSH2 0x3BD JUMP JUMPDEST STOP JUMPDEST PUSH0 PUSH1 0x2 PUSH0 CALLER PUSH20 0xFFFFFFFFFFFFFFFFFFFFFFFFFFFFFFFFFFFFFFFF AND PUSH20 0xFFFFFFFFFFFFFFFFFFFFFFFFFFFFFFFFFFFFFFFF AND DUP2 MSTORE PUSH1 0x20 ADD SWAP1 DUP2 MSTORE PUSH1 0x20 ADD PUSH0 KECCAK256 SLOAD SWAP1 POP SWAP1 JUMP JUMPDEST PUSH1 0x2 PUSH1 0x20 MSTORE DUP1 PUSH0 MSTORE PUSH1 0x40 PUSH0 KECCAK256 PUSH0 SWAP2 POP SWAP1 POP SLOAD DUP2 JUMP JUMPDEST DUP1 PUSH1 0x2 PUSH0 CALLER PUSH20 0xFFFFFFFFFFFFFFFFFFFFFFFFFFFFFFFFFFFFFFFF AND PUSH20 0xFFFFFFFFFFFFFFFFFFFFFFFFFFFFFFFFFFFFFFFF AND DUP2 MSTORE PUSH1 0x20 ADD SWAP1 DUP2 MSTORE PUSH1 0x20 ADD PUSH0 KECCAK256 SLOAD LT ISZERO PUSH2 0x260 JUMPI PUSH1 0x40 MLOAD PUSH32 0x8C379A000000000000000000000000000000000000000000000000000000000 DUP2 MSTORE PUSH1 0x4 ADD PUSH2 0x257 SWAP1 PUSH2 0x60B JUMP JUMPDEST PUSH1 0x40 MLOAD DUP1 SWAP2 SUB SWAP1 REVERT JUMPDEST DUP1 PUSH1 0x2 PUSH0 CALLER PUSH20 0xFFFFFFFFFFFFFFFFFFFFFFFFFFFFFFFFFFFFFFFF AND PUSH20 0xFFFFFFFFFFFFFFFFFFFFFFFFFFFFFFFFFFFFFFFF AND DUP2 MSTORE PUSH1 0x20 ADD SWAP1 DUP2 MSTORE PUSH1 0x20 ADD PUSH0 KECCAK256 PUSH0 DUP3 DUP3 SLOAD PUSH2 0x2AC SWAP2 SWAP1 PUSH2 0x656 JUMP JUMPDEST SWAP3 POP POP DUP2 SWAP1 SSTORE POP CALLER PUSH20 0xFFFFFFFFFFFFFFFFFFFFFFFFFFFFFFFFFFFFFFFF AND PUSH2 0x8FC DUP3 SWAP1 DUP2 ISZERO MUL SWAP1 PUSH1 0x40 MLOAD PUSH0 PUSH1 0x40 MLOAD DUP1 DUP4 SUB DUP2 DUP6 DUP9 DUP9 CALL SWAP4 POP POP POP POP ISZERO DUP1 ISZERO PUSH2 0x2F6 JUMPI RETURNDATASIZE PUSH0 DUP1 RETURNDATACOPY RETURNDATASIZE PUSH0 REVERT JUMPDEST POP POP JUMP JUMPDEST PUSH1 0x1 SLOAD DUP2 JUMP JUMPDEST PUSH0 DUP1 SLOAD SWAP1 PUSH2 0x100 EXP SWAP1 DIV PUSH20 0xFFFFFFFFFFFFFFFFFFFFFFFFFFFFFFFFFFFFFFFF AND DUP2 JUMP JUMPDEST PUSH1 0x1 SLOAD CALLVALUE LT ISZERO PUSH2 0x368 JUMPI PUSH1 0x40 MLOAD PUSH32 0x8C379A000000000000000000000000000000000000000000000000000000000 DUP2 MSTORE PUSH1 0x4 ADD PUSH2 0x35F SWAP1 PUSH2 0x6F9 JUMP JUMPDEST PUSH1 0x40 MLOAD DUP1 SWAP2 SUB SWAP1 REVERT JUMPDEST CALLVALUE PUSH1 0x2 PUSH0 CALLER PUSH20 0xFFFFFFFFFFFFFFFFFFFFFFFFFFFFFFFFFFFFFFFF AND PUSH20 0xFFFFFFFFFFFFFFFFFFFFFFFFFFFFFFFFFFFFFFFF AND DUP2 MSTORE PUSH1 0x20 ADD SWAP1 DUP2 MSTORE PUSH1 0x20 ADD PUSH0 KECCAK256 PUSH0 DUP3 DUP3 SLOAD PUSH2 0x3B4 SWAP2 SWAP1 PUSH2 0x717 JUMP JUMPDEST SWAP3 POP POP DUP2 SWAP1 SSTORE POP JUMP JUMPDEST PUSH0 DUP1 SLOAD SWAP1 PUSH2 0x100 EXP SWAP1 DIV PUSH20 0xFFFFFFFFFFFFFFFFFFFFFFFFFFFFFFFFFFFFFFFF AND PUSH20 0xFFFFFFFFFFFFFFFFFFFFFFFFFFFFFFFFFFFFFFFF AND CALLER PUSH20 0xFFFFFFFFFFFFFFFFFFFFFFFFFFFFFFFFFFFFFFFF AND EQ PUSH2 0x44A JUMPI PUSH1 0x40 MLOAD PUSH32 0x8C379A000000000000000000000000000000000000000000000000000000000 DUP2 MSTORE PUSH1 0x4 ADD PUSH2 0x441 SWAP1 PUSH2 0x7BA JUMP JUMPDEST PUSH1 0x40 MLOAD DUP1 SWAP2 SUB SWAP1 REVERT JUMPDEST DUP1 PUSH1 0x1 DUP2 SWAP1 SSTORE POP POP JUMP JUMPDEST PUSH0 DUP2 SWAP1 POP SWAP2 SWAP1 POP JUMP JUMPDEST PUSH2 0x466 DUP2 PUSH2 0x454 JUMP JUMPDEST DUP3 MSTORE POP POP JUMP JUMPDEST PUSH0 PUSH1 0x20 DUP3 ADD SWAP1 POP PUSH2 0x47F PUSH0 DUP4 ADD DUP5 PUSH2 0x45D JUMP JUMPDEST SWAP3 SWAP2 POP POP JUMP JUMPDEST PUSH0 DUP1 REVERT JUMPDEST PUSH0 PUSH20 0xFFFFFFFFFFFFFFFFFFFFFFFFFFFFFFFFFFFFFFFF DUP3 AND SWAP1 POP SWAP2 SWAP1 POP JUMP JUMPDEST PUSH0 PUSH2 0x4B2 DUP3 PUSH2 0x489 JUMP JUMPDEST SWAP1 POP SWAP2 SWAP1 POP JUMP JUMPDEST PUSH2 0x4C2 DUP2 PUSH2 0x4A8 JUMP JUMPDEST DUP2 EQ PUSH2 0x4CC JUMPI PUSH0 DUP1 REVERT JUMPDEST POP JUMP JUMPDEST PUSH0 DUP2 CALLDATALOAD SWAP1 POP PUSH2 0x4DD DUP2 PUSH2 0x4B9 JUMP JUMPDEST SWAP3 SWAP2 POP POP JUMP JUMPDEST PUSH0 PUSH1 0x20 DUP3 DUP5 SUB SLT ISZERO PUSH2 0x4F8 JUMPI PUSH2 0x4F7 PUSH2 0x485 JUMP JUMPDEST JUMPDEST PUSH0 PUSH2 0x505 DUP5 DUP3 DUP6 ADD PUSH2 0x4CF JUMP JUMPDEST SWAP2 POP POP SWAP3 SWAP2 POP POP JUMP JUMPDEST PUSH2 0x517 DUP2 PUSH2 0x454 JUMP JUMPDEST DUP2 EQ PUSH2 0x521 JUMPI PUSH0 DUP1 REVERT JUMPDEST POP JUMP JUMPDEST PUSH0 DUP2 CALLDATALOAD SWAP1 POP PUSH2 0x532 DUP2 PUSH2 0x50E JUMP JUMPDEST SWAP3 SWAP2 POP POP JUMP JUMPDEST PUSH0 PUSH1 0x20 DUP3 DUP5 SUB SLT ISZERO PUSH2 0x54D JUMPI PUSH2 0x54C PUSH2 0x485 JUMP JUMPDEST JUMPDEST PUSH0 PUSH2 0x55A DUP5 DUP3 DUP6 ADD PUSH2 0x524 JUMP JUMPDEST SWAP2 POP POP SWAP3 SWAP2 POP POP JUMP JUMPDEST PUSH2 0x56C DUP2 PUSH2 0x4A8 JUMP JUMPDEST DUP3 MSTORE POP POP JUMP JUMPDEST PUSH0 PUSH1 0x20 DUP3 ADD SWAP1 POP PUSH2 0x585 PUSH0 DUP4 ADD DUP5 PUSH2 0x563 JUMP JUMPDEST SWAP3 SWAP2 POP POP JUMP JUMPDEST PUSH0 DUP3 DUP3 MSTORE PUSH1 0x20 DUP3 ADD SWAP1 POP SWAP3 SWAP2 POP POP JUMP JUMPDEST PUSH32 0x536F6C646520696E737566666973616E7420706F7572206C6520726574726169 PUSH0 DUP3 ADD MSTORE PUSH32 0x7400000000000000000000000000000000000000000000000000000000000000 PUSH1 0x20 DUP3 ADD MSTORE POP JUMP JUMPDEST PUSH0 PUSH2 0x5F5 PUSH1 0x21 DUP4 PUSH2 0x58B JUMP JUMPDEST SWAP2 POP PUSH2 0x600 DUP3 PUSH2 0x59B JUMP JUMPDEST PUSH1 0x40 DUP3 ADD SWAP1 POP SWAP2 SWAP1 POP JUMP JUMPDEST PUSH0 PUSH1 0x20 DUP3 ADD SWAP1 POP DUP2 DUP2 SUB PUSH0 DUP4 ADD MSTORE PUSH2 0x622 DUP2 PUSH2 0x5E9 JUMP JUMPDEST SWAP1 POP SWAP2 SWAP1 POP JUMP JUMPDEST PUSH32 0x4E487B7100000000000000000000000000000000000000000000000000000000 PUSH0 MSTORE PUSH1 0x11 PUSH1 0x4 MSTORE PUSH1 0x24 PUSH0 REVERT JUMPDEST PUSH0 PUSH2 0x660 DUP3 PUSH2 0x454 JUMP JUMPDEST SWAP2 POP PUSH2 0x66B DUP4 PUSH2 0x454 JUMP JUMPDEST SWAP3 POP DUP3 DUP3 SUB SWAP1 POP DUP2 DUP2 GT ISZERO PUSH2 0x683 JUMPI PUSH2 0x682 PUSH2 0x629 JUMP JUMPDEST JUMPDEST SWAP3 SWAP2 POP POP JUMP JUMPDEST PUSH32 0x4C65206D6F6E74616E74206475206465706F742065737420696E666572696575 PUSH0 DUP3 ADD MSTORE PUSH32 0x72206175206D696E696D756D2072657175697300000000000000000000000000 PUSH1 0x20 DUP3 ADD MSTORE POP JUMP JUMPDEST PUSH0 PUSH2 0x6E3 PUSH1 0x33 DUP4 PUSH2 0x58B JUMP JUMPDEST SWAP2 POP PUSH2 0x6EE DUP3 PUSH2 0x689 JUMP JUMPDEST PUSH1 0x40 DUP3 ADD SWAP1 POP SWAP2 SWAP1 POP JUMP JUMPDEST PUSH0 PUSH1 0x20 DUP3 ADD SWAP1 POP DUP2 DUP2 SUB PUSH0 DUP4 ADD MSTORE PUSH2 0x710 DUP2 PUSH2 0x6D7 JUMP JUMPDEST SWAP1 POP SWAP2 SWAP1 POP JUMP JUMPDEST PUSH0 PUSH2 0x721 DUP3 PUSH2 0x454 JUMP JUMPDEST SWAP2 POP PUSH2 0x72C DUP4 PUSH2 0x454 JUMP JUMPDEST SWAP3 POP DUP3 DUP3 ADD SWAP1 POP DUP1 DUP3 GT ISZERO PUSH2 0x744 JUMPI PUSH2 0x743 PUSH2 0x629 JUMP JUMPDEST JUMPDEST SWAP3 SWAP2 POP POP JUMP JUMPDEST PUSH32 0x5365756C206C652070726F707269657461697265207065757420657865637574 PUSH0 DUP3 ADD MSTORE PUSH32 0x657220636574746520666F6E6374696F6E000000000000000000000000000000 PUSH1 0x20 DUP3 ADD MSTORE POP JUMP JUMPDEST PUSH0 PUSH2 0x7A4 PUSH1 0x31 DUP4 PUSH2 0x58B JUMP JUMPDEST SWAP2 POP PUSH2 0x7AF DUP3 PUSH2 0x74A JUMP JUMPDEST PUSH1 0x40 DUP3 ADD SWAP1 POP SWAP2 SWAP1 POP JUMP JUMPDEST PUSH0 PUSH1 0x20 DUP3 ADD SWAP1 POP DUP2 DUP2 SUB PUSH0 DUP4 ADD MSTORE PUSH2 0x7D1 DUP2 PUSH2 0x798 JUMP JUMPDEST SWAP1 POP SWAP2 SWAP1 POP JUMP INVALID LOG2 PUSH5 0x6970667358 0x22 SLT KECCAK256 0xAB PUSH19 0x8FA5D02D6A1E4F8F540C2FCA03FF3B96F9AE40 SLT 0xC8 PUSH6 0x1B036DA26D20 0xBE DUP8 PUSH5 0x736F6C6343 STOP ADDMOD BYTE STOP CALLER "
				},
				"gasEstimates": {
					"creation": {
						"codeDepositCost": "412400",
						"executionCost": "24712",
						"totalCost": "437112"
					},
					"external": {
						"balances(address)": "2825",
						"deposit()": "infinite",
						"getBalance()": "2520",
						"minimumDeposit()": "2425",
						"owner()": "2527",
						"setMinimumDeposit(uint256)": "24747",
						"withdraw(uint256)": "infinite"
					}
				},
				"methodIdentifiers": {
					"balances(address)": "27e235e3",
					"deposit()": "d0e30db0",
					"getBalance()": "12065fe0",
					"minimumDeposit()": "636bfbab",
					"owner()": "8da5cb5b",
					"setMinimumDeposit(uint256)": "e78ec42e",
					"withdraw(uint256)": "2e1a7d4d"
				}
			},
			"storageLayout": {
				"storage": [
					{
						"astId": 3,
						"contract": "contracts/SavingsContract.sol:SavingsContract",
						"label": "owner",
						"offset": 0,
						"slot": "0",
						"type": "t_address"
					},
					{
						"astId": 5,
						"contract": "contracts/SavingsContract.sol:SavingsContract",
						"label": "minimumDeposit",
						"offset": 0,
						"slot": "1",
						"type": "t_uint256"
					},
					{
						"astId": 9,
						"contract": "contracts/SavingsContract.sol:SavingsContract",
						"label": "balances",
						"offset": 0,
						"slot": "2",
						"type": "t_mapping(t_address,t_uint256)"
					}
				],
				"types": {
					"t_address": {
						"encoding": "inplace",
						"label": "address",
						"numberOfBytes": "20"
					},
					"t_mapping(t_address,t_uint256)": {
						"encoding": "mapping",
						"key": "t_address",
						"label": "mapping(address => uint256)",
						"numberOfBytes": "32",
						"value": "t_uint256"
					},
					"t_uint256": {
						"encoding": "inplace",
						"label": "uint256",
						"numberOfBytes": "32"
					}
				}
			},
			"userdoc": {
				"kind": "user",
				"methods": {},
				"version": 1
			}
		}
	}
}